S0180000636F64655F636865636B706F696E74312E73726563B9
S11300000C9434000C9449000C9449000C9449005D
S11300100C9449000C9449000C9449000C94490038
S11300200C9449000C9449000C9449000C94490028
S11300300C9449000C9449000C9449000C94490018
S11300400C9449000C9449000C9449000C94490008
S11300500C9449000C9449000C9449000C944900F8
S11300600C9449000C94490011241FBECFEFD8E032
S1130070DEBFCDBF11E0A0E0B1E0E2EFF0E002C0EE
S113008005900D92A031B107D9F70E945B000C9442
S113009077000C940000E0E0F1E020E131E0819190
S11300A085B987EA91E60197F1F700C00000E217ED
S11300B0F307A9F708958FEF84B917B848990FC0CB
S11300C084E190E0E7EAF1E63197F1F700C000003F
S11300D0489902C00197B1F7489B0E944B00E6B1D2
S11300E0EF70F0E0E050FF4F808185B9E7CFF894DE
S10500F0FFCF3C
S11300F23F065B4F666D7D077F6F777C395E797152
S9030000FC
