S0180000636865636B706F696E74325F636F64652E73726563B8
S11300000C942A000C9447000C9447000C9447006D
S11300100C9447000C9447000C9447000C94470040
S11300200C9447000C9447000C9447000C94470030
S11300300C9447000C9447000C9447000C94470020
S11300400C9447000C9447000C9447000C94470010
S11300500C94470011241FBECFE5D8E0DEBFCDBF0E
S113006010E0A0E6B0E0E0E7F2E002C005900D92F7
S1130070A437B107D9F720E0A4E7B0E001C01D928E
S1130080A637B207E1F70E9401010C9436010C94E3
S1130090000088B38FEF88BB95B385BB919A2FEF8F
S11300A083ED90E3215080409040E1F700C00000D0
S11300B088B318BA85B315BA82B312BA0895809179
S11300C0740090917500019719F40E94C600089578
S11300D00E94B7000895809BFECF00E010E0D12C71
S11300E0E12C0F2EF2E78F2EF0E09F2EF02DCC2482
S11300F0C394F12C0F2EF0E7AF2EF0E0BF2EF02DBD
S11301008091740090917500892B79F4012B41F44E
S1130110F501808188BB818185BB0C2D1F2D13C007
S113012018BA15BA0D2D1E2D0EC0012B41F4F40181
S1130130808188BB818185BB0C2D1F2D04C018BA1A
S113014015BA0D2D1E2DCAE0D0E0809904C0809B05
S1130150FECF0E945F00FFEF20E782E0F1502040D5
S11301608040E1F700C00000219779F7C9CFE2E7AA
S1130170F0E0808188BB818185BB919A81E090E029
S113018090937500809374000E946B0024E130E02A
S1130190CAE0D0E0C901BE010E940E01FB01E05A91
S11301A0FF4F408148BBFC01E05AFF4F808185BB73
S11301B04FEF83ED90E3415080409040E1F700C061
S11301C000002150310931F7E0E7F0E0808188BB7D
S11301D0818185BB82B312BA1092750010927400AB
S11301E00E946B00809BFECF8FE39CE90197F1F79F
S11301F000C00000809BF6CF8099FECF0E945F0074
S113020008958FEF87BB84BB8EE081BB18BA15BA03
S113021012BA0E9449000E94F200FDCF97FB072EFC
S113022016F4009407D077FD09D00E94220107FC40
S113023005D03EF4909581959F4F089570956195F2
S11302407F4F0895AA1BBB1B51E107C0AA1FBB1F08
S1130250A617B70710F0A61BB70B881F991F5A954E
S1130260A9F780959095BC01CD010895F894FFCF2E
S11302703F065B4F666D7D077F6F777C395E7971D2
S10702805C715C54F9
S9030000FC
